:1000000000800020B1010000DD010000DD010000E2
:10001000DD010000DD010000DD010000DD01000068
:10002000DD010000DD010000DD010000DD01000058
:10003000DD010000DD010000DD010000DD01000048
:10004000DD010000DD010000DD010000DD01000038
:10005000DD010000DD010000DD010000DD01000028
:10006000DD010000DD010000DD010000551F000082
:10007000DD010000DD010000DD010000DD01000008
:10008000DD010000DD010000DD010000DD010000F8
:10009000DD010000DD010000DD010000DD010000E8
:1000A000DD010000DD010000DD010000DD010000D8
:1000B000DD010000DD010000DD010000DD010000C8
:1000C00015140000DD010000DD010000DD0100006D
:1000D000DD010000DD010000DD010000DD010000A8
:1000E00010B5054C237833B9044B13B10448AFF372
:1000F00000800123237010BD680200200000000072
:10010000A02B0000084B10B51BB108480849AFF3FD
:1001100000800848036803B910BD074B002BFBD0D3
:10012000BDE81040184700BF00000000A02B0000F1
:100130006C0200206402002000000000154B002B20
:1001400008BF134B9D46A3F5803A00218B460F460E
:100150001348144A121A02F073FC0F4B002B00D004
:1001600098470E4B002B00D0984700200021040038
:100170000D000D48002802D00C48AFF3008002F0BB
:1001800031FC2000290001F0A9FF02F017FC00BF9C
:1001900000000800008000200000000000000000B7
:1001A00068020020B80200200000000000000000EB
:1001B000064880470649074A074B9A42BEBF51F896
:1001C000040B42F8040BF8E7FFF7B8FF5D030000EB
:1001D000AC2B00000000002068020020FEE700BFFA
:1001E00080B400AF044BDB6C1B0EDBB21846BD467F
:1001F0005DF8047B704700BFB081E00F80B582B02E
:1002000000AF00F01FF87860074B5B6803F00F0346
:100210001A467B68D3407B60044A7B6813607B6826
:1002200018460837BD4680BD00800C40980200206B
:1002300080B400AF024B1846BD465DF8047B7047A2
:10024000003FAB0180B582B000AF334BDB6A03F4F3
:100250007053B3F5805F0AD0B3F5005F03D0B3F5F8
:10026000006F08D00BE02D4B1B687B6047E04FF41C
:1002700000437B6043E02A4B1B687B603FE0264BDA
:10028000DB6803F4E063B3F5007F1BD0B3F5007FB8
:1002900005D8002B24D0B3F5807F16D02BE0B3F522
:1002A000806F09D0B3F5A06F03D0B3F5407F06D0BF
:1002B00021E01C4B7B6021E01B4B7B601EE01B4B55
:1002C0007B601BE01A4B7B6018E0FFF789FF034659
:1002D000122B02D9174B7B6010E0174B7B600DE0AF
:1002E000FFF77EFF0346122B02D9144B7B6005E01B
:1002F000134B7B6002E000237B6000BF00BF064B16
:100300001B6803F4E0339B0B01337A68B2FBF3F311
:1003100018460837BD4680BD00800C400400002010
:1003200000000020003FAB01406F4001809FD500DE
:10033000C0D8A70040B56400C0CF6A00804F12004B
:1003400040420F0080B400AF034B1B681846BD4607
:100350005DF8047B704700BF0000002080B400AF50
:10036000054A054BD3F8883043F47003C2F888304F
:10037000BD465DF8047B704700ED00E080B400AF3F
:100380004FF400431846BD465DF8047B704700BF3C
:1003900080B400AF4FF47A731846BD465DF8047B15
:1003A000704700BF80B400AF034B1B681846BD46C2
:1003B0005DF8047B704700BF0400002080B487B064
:1003C00000AFF860B9607A60FB6803F10473DA008B
:1003D000BB6813449B007B617B697A681A601C3799
:1003E000BD465DF8047B704780B485B000AF78608F
:1003F00039607B6803F10473DA003B6813449B00A7
:10040000FB60FB681B6818461437BD465DF8047B2B
:10041000704700BF80B485B000AF78607B68002B68
:1004200004D07B68B3F5004F00D800BF7B68B3FAF7
:1004300083F3C3F11F03FB60FB6818461437BD4606
:100440005DF8047B704700BF80B400AF044BDB6CE9
:100450001B0EDBB21846BD465DF8047B704700BF3B
:10046000B081E00F80B584B000AF786039607A6801
:100470003B689A428CBF01230023DBB2FB60064835
:100480001E21FA68FFF79AFF04480821FA68FFF76F
:1004900095FF1037BD4680BD00800C4004800C40A5
:1004A00080B582B000AF07481E21FFF79DFF78603E
:1004B00005480821FFF798FF38607B681846083721
:1004C000BD4680BD00800C4004800C4080B582B0E9
:1004D00000AF214B5B6903F4E063B3F5007F1CD0F0
:1004E000B3F5007F05D8002B25D0B3F5807F1FD052
:1004F0002AE0B3F5C06F24D0B3F5E06F1ED0B3F59A
:10050000407F21D1FFF7A0FF0346122B02D9134BE6
:100510007B601CE0124B7B6019E0FFF795FF034600
:10052000122B02D90F4B7B6011E00F4B7B600EE06A
:100530000E4B7B600BE00E4B7B6008E00D4B7B604D
:1005400005E00D4B7B6002E000237B6000BF7B6811
:1005500018460837BD4680BD00800C40804F120011
:1005600040420F0040B56400C0CF6A00C0D8A70069
:10057000809FD500406F4001003FAB0180B582B045
:1005800000AF0D4800F05EFA0346FB70FB78072BC6
:1005900005D0082B07D1FFF755FE786006E0FFF77E
:1005A00095FF786002E000237B6000BF7B681846FF
:1005B0000837BD4680BD00BF06000C0080B485B082
:1005C00000AF7860284BDB6B002B14BF01230023A6
:1005D000BB72254B41F67132DA63234B5B6803F043
:1005E0000703FB60FB68012B01D9042B02D1002318
:1005F000FB7202E00123FB7200BF7B681B4A93423F
:1006000007D9FB7A002B01D0052300E00423FB600F
:1006100016E07B68154A93420BD87B68144A9342D4
:1006200007D9FB7A002B01D0032300E00123FB60F4
:1006300006E0FB7A002B01D0022300E00023FB60E0
:100640000949094B5B6823F00702FB6813434B60C1
:10065000BB7A002B02D0044B0022DA631437BD466C
:100660005DF8047B704700BF00000C400048E801C3
:100670000024F40080B500AFFFF7DAFD034618460A
:10068000FFF79CFF80BD00BF90B585B000AF7860DC
:100690000023BB607B68344A934203D0334A9342C1
:1006A00000D000E000BF786800F0CCF90346FB60A2
:1006B0007B682D4A934203D02C4A934206D00CE02B
:1006C0002B4B9B6A03F00303FB6006E0284B9B6AFD
:1006D00003F00C039B08FB6000BFFB68032B3AD8B8
:1006E00001A252F823F000BF1F070000F906000026
:1006F0000107000009070000FFF740FEB8602DE089
:10070000FFF750FEB86029E0FFF778FD0446FFF7D9
:10071000C7FE0346013324FA03F3BB601EE0002347
:10072000BB607B68104A934203D07B680F4A9342B8
:1007300010D10F4B9A6A7B680B498B4201D1102371
:1007400000E0142322FA03F3002B03D0FFF720FE6E
:10075000B86003E002E00023BB6000BFBB6818463E
:100760001437BD4690BD00BF02001A0003001C00F4
:1007700000800C4080B483B000AF7860094B5B6DA3
:1007800003F00103002B00D006E000BF054B1A6DFB
:100790007B681340002BF9D10C37BD465DF8047B14
:1007A000704700BF00800C4080B586B000AF786015
:1007B0000B46FB7000233B617B681B0A03F00F03B1
:1007C000013B092B46D801A252F823F00B08000088
:1007D00011080000F507000055080000550800004A
:1007E0001708000021080000550800005508000007
:1007F0002B080000194B7B61194800F03FF80346B5
:1008000018461849FFF72EFE12E0174B7B610FE0E8
:10081000164B7B610CE0164B7B6101233B6107E0CB
:10082000144B7B6110233B6102E0134B7B6100BFE3
:100830007B681B0B03F01F03FB603B69002B02D09E
:100840003869FFF797FFFB787869F9681A46FFF770
:10085000B5FD00E000BF1837BD4680BD40800C40AC
:100860000043020000366E0108800C4044800C40BA
:1008700058800C4060800C4078800C4090B585B06A
:1008800000AF78607B6803F47813B3F5A01F5DD0E8
:10089000B3F5A01F17D8B3F5802F34D0B3F5802F50
:1008A00005D8002B2BD0B3F5003F38D0BBE0B3F513
:1008B000602F00F0B480B3F5801F39D0B3F5402F1E
:1008C00000F0A980AFE0B3F5E01F00F08480B3F53D
:1008D000E01F0AD8B3F5C01F00F08F80B3F5D01F1A
:1008E00021D0B3F5B01F7BD09DE0B3F5201F4ED0D3
:1008F000B3F5281F62D0B3F5181F35D093E0FFF78A
:10090000A1FCF86092E0FFF79DFCF8604A4B9B6801
:1009100003F00F031A46FB68D340FB6086E0FFF745
:100920006DFCF86082E04548FFF7AEFEF8607DE0C0
:100930004248FFF7A9FEF8603F4B9B6E03F0F003BF
:100940001B091A46FB68D340FB606FE03B48FFF78A
:100950009BFEF860384B9B6E03F470631B0A1A46CB
:10096000FB68D340FB6061E03448FFF78DFEF86020
:10097000314B9B6E03F440531C0B1020FFF74AFDD4
:10098000034623441A46FB68D340FB604EE02B48E5
:10099000FFF77AFEF860284B9B6E03F440531B0B65
:1009A0001A46FB68D340FB60234BDB6F03F0070361
:1009B0000133FA68B2FBF3F3FB6037E01F48FFF73F
:1009C00063FEF8601C4B9B6E03F003031A46FB6842
:1009D000D340FB602AE01A48FFF756FEF86025E096
:1009E0001748FFF751FEF860134B1B6F03F003032A
:1009F0001A46FB68D340FB6018E01148FFF744FE3D
:100A0000F8600D4B1B6F03F030031B091A46FB689F
:100A1000D340FB600AE0FFF7B1FDF86006E0FFF7A6
:100A200055FDF86002E00023FB6000BFFB6818463C
:100A30001437BD4690BD00BF00800C4002001A0074
:100A400003001C0080B485B000AF78600123FB7305
:100A50007B6803F00F03BB60BB68013B052B77D8B5
:100A600001A252F823F000BF810A0000B70A00007B
:100A7000F30A0000510B0000510B00002F0B000087
:100A8000384BDB6A03F47053B3F5805F09D0B3F5DC
:100A9000005F03D0B3F5006F06D008E00223FB73BC
:100AA00008E00323FB7305E00423FB7302E0052346
:100AB000FB7300BF4FE02B4B9B6A03F00303022B39
:100AC00006D0032B07D0012B08D10323FB730FE0C3
:100AD0000223FB730CE00623FB7309E0214B9B6AA6
:100AE00003F48033002B02D00923FB7300E000BF26
:100AF00031E01C4B9B6A03F00C03082B06D00C2B37
:100B000007D0042B08D10323FB730FE00223FB73F0
:100B10000CE00623FB7309E0124B9B6A03F480137D
:100B2000002B02D00923FB7300E000BF13E00D4B44
:100B30001B6803F08053002B03D0B3F1805F03D018
:100B400009E00723FB7302E00823FB7300BF02E008
:100B50000023FB7300BFFB7B18461437BD465DF8CE
:100B6000047B704700800C4080B588B000AF78608F
:100B70000B46FB700323FB610323FB7600233B61E1
:100B80007B6803F00F03FB60FB68013B052B00F261
:100B9000E98001A252F823F0B10B00007B0C0000A9
:100BA0007B0C0000650D0000650D00003B0D000092
:100BB000FB78023B072B00F2D98001A252F823F008
:100BC000E10B0000EB0B0000F50B0000310C000006
:100BD0006D0D00006D0D00006D0D00006D0D00002D
:100BE0000423FB610023FB762BE00323FB6101233D
:100BF000FB7626E00223FB610223FB765E485F4919
:100C0000FFF730FCFFF79EFB02465D4B9A4206D988
:100C10005C4A5C4B1B6843F06003136011E0594A67
:100C2000584B1B6823F0600343F02003136008E077
:100C30000123FB610323FB764F485049FFF712FC69
:100C400000BFFB7E18460121012200F0A1F8FFF74A
:100C500011FD4C4AFB6953624B48FFF70FFE0346F8
:100C600018464649FFF7FEFB00F0F2F8FFF7C6FA18
:100C7000B860B868FFF7A2FC75E0FB78013B082B71
:100C800076D801A252F823F0AD0C0000B30C00009E
:100C9000C30C0000710D0000710D0000D30C0000AA
:100CA000710D0000710D0000F10C000000237B614C
:100CB00023E000200121012200F06AF802237B6179
:100CC0001BE001200121012200F062F801237B6179
:100CD00013E0FFF793FAB860B8682849FFF7C2FB42
:100CE0002A4804210122FFF769FB03237B6104E00A
:100CF00000237B6101233B6100BFFB68022B0DD108
:100D00002049204B9B6A23F4803323F003037A6944
:100D10001A433B691B0413438B6224E01949194BA6
:100D20009B6A23F4801323F00C037A6992001A4320
:100D30003B691B0513438B6215E0FB78072B02D040
:100D4000082B07D015E00F4A0E4B1B6823F0805389
:100D5000136006E00B4A0B4B1B6843F08053136093
:100D600000BF00E000BFFFF79BFB02E000BF00E018
:100D700000BF2037BD4680BD01366E0100366E01D2
:100D80000048E80100800C400043020040800C4015
:100D900080B586B000AF0346FB710B46BB711346AE
:100DA0007B71FB79042B4AD801A252F823F000BFD3
:100DB000FD0D0000EF0D0000D30D0000C50D00007B
:100DC000E10D000001233B610223FB6001237B61F5
:100DD0001DE004233B610823FB6003237B6116E0D5
:100DE00010233B612023FB6005237B610FE0402340
:100DF0003B618023FB6007237B6108E04FF4807335
:100E00003B614FF40073FB6009237B6100BFBB793A
:100E1000002B0ED00C4A3B6913627B79002B0BD060
:100E200000BF0A487969FFF7DFFA0346002BF8D0C4
:100E300002E0054AFB68136200F00AF800E000BF18
:100E40001837BD4680BD00BF00800C402C800C4090
:100E500080B400AF034BDB6A034A1360BD465DF804
:100E6000047B704700800C408402002080B487B06F
:100E700000AFF860B9607A60FB6803F10473DA00D0
:100E8000BB6813449B007B617B697A681A601C37DE
:100E9000BD465DF8047B704780B485B000AFF86054
:100EA000B9607A60FB681A68BB68DB431A407B68EC
:100EB0001A43FB681A601437BD465DF8047B70471F
:100EC00080B483B000AF03463960FB71FB79002B1F
:100ED0000DD0FB79012B0AD0FB79022B07D0FB79CF
:100EE000032B04D0FB79042B01D0FB79052B094996
:100EF000FA793B68012000FA03F318461346DB0039
:100F000013449B000B44103358600C37BD465DF80A
:100F1000047B70470060004080B483B000AF03469C
:100F20003960FB71FB79002B0DD0FB79012B0AD0C6
:100F3000FB79022B07D0FB79032B04D0FB79042B20
:100F400001D0FB79052B0949FA793B68012000FAA9
:100F500003F318461346DB0013449B000B44103385
:100F600018600C37BD465DF8047B70470060004098
:100F700080B586B000AFB9607A601A460346FB734D
:100F80001346BB73FB7B002B0DD0FB7B012B0AD0E0
:100F9000FB7B022B07D0FB7B032B04D0FB7B042BBA
:100FA00001D0FB7B052B7B68072B0ED87B689B0051
:100FB0001A46072303FA02F1FB7B7A6892009340FA
:100FC00019481A46FFF768FF10E07B68083B7B6111
:100FD0007B699B001A46072303FA02F1FB7B7A69BF
:100FE0009200934011481A46FFF756FFBB7B10480A
:100FF00079681A46FFF73AFF97F820300D4879686C
:101000001A46FFF733FF0C4A7B68012101FA03F30C
:10101000C2F81C3197F82430084879681A46FFF75F
:1010200025FF1837BD4680BD0061004004610040C7
:10103000086100400C610040006000401061004009
:1010400090B585B000AFB9607B600346FB73134673
:10105000BB73FB7B002B0DD0FB7B012B0AD0FB7BF2
:10106000022B07D0FB7B032B04D0FB7B042B01D08E
:10107000FB7B052BBB7B002B0DD07B68002B05D0A9
:10108000FB7B1846B968FFF747FF04E0FB7B184677
:10109000B968FFF715FFBB68072B1CD82A4CFA7BF1
:1010A0002948F97B0B46DB000B449B0003445B683B
:1010B000B968890008460F218140C9430B40B97BBC
:1010C000B8688000814019431346DB0013449B003D
:1010D0002344596024E01C4CFA7B1B48F97B0B46E7
:1010E000DB000B449B00034408331968BB6803F121
:1010F0008043083B9B0018460F238340DB43194085
:10110000B87BBB6803F18043083B9B0000FA03F304
:1011100019431346DB0013449B0023440833196032
:10112000BB7B002B0DD17B68002B05D0FB7B1846C9
:10113000B968FFF7F1FE04E0FB7B1846B968FFF7DA
:10114000BFFE1437BD4690BD0060004080B485B03E
:1011500000AFF860B9607A60FB681A68BB68DB436F
:101160001A407B681A43FB681A601437BD465DF865
:10117000047B704780B586B000AFF860B9607A60D4
:10118000BB68002B03D11648FFF778FBB860BB683B
:101190005B007B617A687B691344013B7B617A6900
:1011A0007B68B2FBF3F37B617B69043B7B617B690A
:1011B0009B017B617B69C0337B617B6923F0FF030B
:1011C0007B617A69074B13407B61FB6814331846D7
:1011D00004497A69FFF7BAFF1837BD4680BD00BFE2
:1011E00040810400C0FF1F0080B582B000AF78606E
:1011F00039607B682C4A934207D07B682B4A934224
:1012000003D07B682A4A934200D100BF786800F07F
:1012100051F87B681A683B681B8A43F001039BB254
:1012200019463B689B7B002B02D04FF4806300E0A3
:1012300000230B431A437B681A607B681A683B687B
:101240001B7D002B02D04FF0005300E000231A4317
:101250007B681A603B689B7C002B07D03B68DB7C7B
:1012600043F01003DBB21A467B689A653B681B7B30
:1012700043F480527B685A603B685A683B689B68BD
:10128000786811461A46FFF775FF3B685B7B002BB9
:1012900002D07B681022DA603B681B781A467B68B4
:1012A000DA600837BD4680BD00C0004000C4004081
:1012B00000C8004080B483B000AF78607B68204AEB
:1012C000934207D07B681F4A934203D07B681E4A33
:1012D000934200D100BF7B6840F6AA62DA607B6867
:1012E00000221A607B6841F205025A607B68002286
:1012F0009A607B6800225A617B680022DA647B680E
:1013000041F6F9729A647B6800225A657B680C4A40
:10131000934202D17B6800221A657B6800229A659D
:101320007B68084A934203D07B68074A934202D104
:101330007B680022DA650C37BD465DF8047B704798
:1013400000C0004000C4004000C8004080B483B02A
:1013500000AF78600B46FB7000BF7B681B6903F031
:101360004003002BF9D0FA787B685A6300BF7B6892
:101370001B6903F02003002BF9D07B68DB69DBB22B
:1013800018460C37BD465DF8047B704780B483B0C7
:1013900000AF0346FB71084997F907305B09FA79FA
:1013A00002F01F02012000FA02F241F823200C375C
:1013B000BD465DF8047B704700E100E080B483B077
:1013C00000AF7860034A7B6893630C37BD465DF8D5
:1013D000047B704700800C4080B483B000AF78601D
:1013E0000549054BDA6B7B681343CB630C37BD466D
:1013F0005DF8047B704700BF00800C4080B400AFF4
:10140000034B1B6B1846BD465DF8047B704700BF5D
:1014100000800C4080B582B000AFFFF7EFFF78602E
:101420000320FFF7CBFF7B6803F00203002B0BD0F8
:1014300011200421FFF798FB032000210022FFF771
:10144000A7FC034B01221A600837BD4680BD00BFD0
:101450008802002080B500AF11200521FFF784FB32
:101460001A480121FFF7A0F919480121FFF79CF95B
:1014700018480121FFF798F9022001210022FFF707
:1014800087FC0220FFF7A8FF2020FFF77FFF00BFA7
:10149000114B1B68012BFBD1104A104B1B6823F02A
:1014A000030343F0020313600C4A0C4B1B6823F444
:1014B000E00343F480131360084A084BD3F88030EC
:1014C00043F00103C2F8803080BD00BF00D20400A9
:1014D00000520400006204008802002000800C40DA
:1014E00080B582B000AF04200D2104220123FFF754
:1014F000A7FD0020022104220123FFF7A1FD012006
:10150000072104220123FFF79BFD02200D21042265
:101510000123FFF795FD00237B600AE0084A7B6802
:1015200052F823301846012100F076FC7B68013325
:101530007B607B68072BF1DD0837BD4680BD00BFAF
:10154000D801002080B483B000AF78603960584A79
:10155000574B1B6823F440331360554A544B1B68A8
:1015600023F070631360524A514B1B6823F003034E
:1015700013604F4A4E4BDB696FEA13436FEA034334
:10158000D3614B494A4BDB691B0C1B047A6813433C
:10159000CB61474A464B1B6D23F0030343F0020324
:1015A0001365434A424B1B6D23F4407343F480732D
:1015B00013653F4A3E4B5B6D1B0C1B0453653C4A55
:1015C0003B4B1B6D43F0040313653949384B5B6D8E
:1015D0001B0C1B043A6813434B65354A344B9B6A1A
:1015E00023F4E0239362324A314B9B6A23F00713C2
:1015F00023F4E06343F0040393622E4A2D4B1B68EF
:1016000023F0030313602B4A2A4B1B6843F010039B
:101610001360284A274B1B6823F008031360254AF0
:10162000244B1B6823F4403343F400331360214AF6
:10163000204B1B6843F0100313601E4A1D4B1B6BAD
:1016400023F0030343F0020313631A4A194B1B6B85
:1016500043F004031363174A164B1B6B23F44073C8
:1016600043F480731363134A124B1B6B23F48013F0
:101670001363104A0F4BDB691B0C1B0443F013036D
:10168000D3610C4A0B4B9B6A23F0071323F4E063EE
:1016900043F001039362074A064B9B6A23F4E0235D
:1016A00043F4403393620C37BD465DF8047B7047CA
:1016B000000001400004014080B483B000AF034645
:1016C000FB71084997F907305B09FA7902F01F02AC
:1016D000012000FA02F241F823200C37BD465DF8E4
:1016E000047B704700E100E080B483B000AF0346A4
:1016F000FB71094997F907305B09FA7902F01F027B
:10170000012000FA02F2603341F823200C37BD4675
:101710005DF8047B704700BF00E100E080B483B057
:1017200000AF7860044A7B68C2F81C310C37BD46B4
:101730005DF8047B704700BF0060004080B483B058
:1017400000AF78600649064BD3F810217B68DB4375
:101750001340C1F810310C37BD465DF8047B70476B
:101760000060004080B483B000AF78600649064B4B
:10177000D3F810217B681343C1F810310C37BD46F4
:101780005DF8047B704700BF0060004080B489B002
:1017900000AFF860084611461A4603467B810B46A7
:1017A0003B811346FB807B89FB820023FB61FB8826
:1017B000BB6128E0FB681B8899B20122BB6902FA71
:1017C00003F39BB2DB439BB20A4613409BB29AB22F
:1017D000FB681A80FB681B8899B2FA8AFB6942FA97
:1017E00003F303F00102BB6902FA03F39BB20A465A
:1017F00013439BB29AB2FB681A80FB690133FB6109
:10180000BB690133BB613A89FB699A42D2DC243758
:10181000BD465DF8047B7047F0B5CDB008AFDE4B38
:1018200007F1E0041D460FCD0FC40FCD0FC495E89E
:10183000070084E807004FF40463C7F8F43007F1A9
:10184000E0031C331846012101220B23FFF79EFF02
:1018500007F1E0031C331846002102220923FFF799
:1018600095FF07F1E0031C331846022102220323EF
:10187000FFF78CFF07F1E0031C3318460021032219
:101880000023FFF783FF07F1E0030233184601212D
:1018900001220923FFF77AFF07F1E003023318461C
:1018A000022102220623FFF771FF07F1E003023352
:1018B0001846002104220223FFF768FF07F1E00326
:1018C00002331846012101220823FFF75FFF07F1C9
:1018D000E00302331846022102220023FFF756FFDD
:1018E000AE4BC7F8003107F1B40407F1E0050FCDA6
:1018F0000FC40FCD0FC495E8070084E8070007F177
:10190000B4031A331846012101220F23FFF73EFFCB
:1019100007F1B4031A331846002105220523FFF707
:1019200035FF07F1B4031A331846012105220023BD
:10193000FFF72CFF07F1880407F1E0050FCD0FC476
:101940000FCD0FC495E8070084E8070007F188036E
:101950001A331846012101220F23FFF717FF07F161
:1019600088031A331846002105220523FFF70EFFCE
:1019700007F188031A331846012105220023FFF7D7
:1019800005FF07F188031C331846012101220B23B0
:10199000FFF7FCFE07F188031C33184601210322E0
:1019A0000023FFF7F3FE07F15C0407F1E0050FCD1C
:1019B0000FC40FCD0FC495E8070084E8070007F1B6
:1019C0005C031A331846012101220F23FFF7DEFEC4
:1019D00007F15C031A331846002105220523FFF79F
:1019E000D5FE07F15C031A331846112105220023A6
:1019F000FFF7CCFE07F15C031C33184600210122DF
:101A00000B23FFF7C3FE07F15C031C3318460021CC
:101A100002220323FFF7BAFE07F1300407F1E005C5
:101A20000FCD0FC40FCD0FC495E8070084E8070061
:101A300007F130031A331846012101220F23FFF763
:101A4000A5FE07F130031A331846002105220523AD
:101A5000FFF79CFE07F130031A33184601210522D7
:101A60000023FFF793FE3B1D4B4A1C4615460FCD46
:101A70000FC40FCD0FC495E8070084E807003B1D95
:101A800002331846032102220623FFF77FFE4FF69A
:101A9000FF73C7F80C3100BFD7F80C315A1EC7F8D6
:101AA0000C21002BF8D13E4B1E686D4607F1C00497
:101AB0000FCC0FC594E80F0085E80F0007F1B403C1
:101AC0000ECB304600F04AF9354B5E686D4607F1A3
:101AD000C0040FCC0FC594E80F0085E80F0007F194
:101AE000B4030ECB304600F039F92D4B9E686D469D
:101AF00007F194040FCC0FC594E80F0085E80F00A0
:101B000007F188030ECB304600F028F9244BDE683D
:101B10006D4607F194040FCC0FC594E80F0085E8DB
:101B20000F0007F188030ECB304600F017F91C4B6D
:101B30001E696D4607F13C040FCC0FC594E80F00F9
:101B400085E80F0007F130030ECB304600F006F9B0
:101B5000134B5E696D4607F168040FCC0FC594E81E
:101B60000F0085E80F0007F15C030ECB304600F054
:101B7000F5F80B4B9E696D4607F168040FCC0FC555
:101B800094E80F0085E80F0007F15C030ECB3046A8
:101B900000F0E4F806E000BF542B00001E00060031
:101BA000D80100200A4BDE696D4607F168040FCCAE
:101BB0000FC594E80F0085E80F0007F15C030ECB1A
:101BC000304600F0CBF807F58A77BD46F0BD00BF80
:101BD000D801002080B586B000AFF8607A601A4660
:101BE0000B46FB721346BB7200233B61FB7A3B74CE
:101BF0000123FB7510E0FB7DB97AFA7D8A1AD200C9
:101C0000796821FA02F2D2B207F118010B4403F805
:101C1000082CFB7D0133FB75FA7DBB7A9A42EAD929
:101C2000F868002100F0F8F8BB7A013307F11002E0
:101C3000104600211A46002300F002F9F86801213D
:101C400000F0EAF81837BD4680BD00BF80B586B009
:101C500000AF78600B46FB701346BB700023BB815E
:101C60000023BB7300237B61FB7843F04003DBB2AE
:101C7000BB747868002100F0CFF8BB7807F112013F
:101C800007F10C0208461146012200F0D9F87868E5
:101C9000012100F0C1F80023FB7414E0FB7C07F184
:101CA0001802134413F80C3C1946BA78FB7CD31A7B
:101CB000013BDB0001FA03F31A467B6913447B61A5
:101CC000FB7C0133FB74FA7CBB789A42E6D37B69D8
:101CD00018461837BD4680BD80B582B000AFFF23DF
:101CE0003B70FF237B70FF23BB70FF23FB70FF2340
:101CF0003B71FF237B71FF23BB71FF23FB713B46CD
:101D0000184600210822002300F09AF80837BD4643
:101D100080BD00BF80B582B000AF78600C4A0C4B2C
:101D20005B6843F0010353600A4A0A4B5B6843F067
:101D3000010353607868002100F06EF8064B1B68C1
:101D4000DB681846FFF70EFD0837BD4680BD00BFB3
:101D500000000140000401403400002084B080B540
:101D600082B000AF786007F1140080E80E00BB6A13
:101D7000786807211A460323FFF72CFF78680721AC
:101D80000322FFF763FF02467B689A61FB8D786848
:101D900009211A460223FFF71DFF78680921022254
:101DA000FFF754FF03469AB27B68DA833B8E78686C
:101DB00019211A460223FFF70DFF78681921022224
:101DC000FFF744FF03469AB27B681A84FB8A78685F
:101DD00001211A460223FFF7FDFE78680121022245
:101DE000FFF734FF03469AB27B68DA807B6B786832
:101DF00021211A460323FFF7EDFE786821210322F3
:101E0000FFF724FF02467B685A620837BD46BDE8EB
:101E1000804004B0704700BF80B582B000AF7860EA
:101E200039607B6893F830207B6893F8313019462D
:101E30003B6810460422FFF703F90837BD4680BD12
:101E400080B584B000AFF860B9607A603B600BE0A9
:101E5000FB681B7810481946FFF778FAFB680133D6
:101E6000FB607B68013B7B607B68002BF0DC0DE056
:101E700009480021FFF76AFA03461A46BB681A7040
:101E8000BB680133BB603B68013B3B603B68002B98
:101E9000EEDC1037BD4680BD00C00040B0B586B056
:101EA00000AF1A4B3C461D460FCD0FC495E803000A
:101EB00084E8030016480121FEF776FC0420072180
:101EC00004220023FFF7BCF804200621012200238E
:101ED000FFF7B6F80420052104220123FFF7B0F82C
:101EE0000C4B1B681B6ABB600123BB734FF4407330
:101EF0003B823B4608481946FFF776F9064B40F20D
:101F00000B125A651837BD46B0BD00BF802B0000CC
:101F1000000204003400002000C0004080B582B000
:101F200002AF0420092102220123FFF789F80123CF
:101F30000093002301930420092109220023FFF7C5
:101F400017F80B20FFF7D0FB0B20FFF7B5FBBD46C2
:101F500080BD00BF90B587B000AF544B1B68DB68F5
:101F60001846FFF7EBFB4223FB73514BD3F81421C8
:101F70004E4B1B68DB689A4240F094804B4B1B68C9
:101F8000DB681846FFF7DAFB00237B616DE0494A06
:101F90007B6952F8233018460021FFF73DFFFB7B99
:101FA00045481946FFF7D2F900233B614FE0434B08
:101FB0001968434B1B68434A126802FB03F07A69B5
:101FC00013465B001344C2183B6913443E4A12682F
:101FD000B3FBF2F002FB00F29B1ACC18364800214A
:101FE000FFF7B4F9034623707B69042B2CD1344BE3
:101FF0001A68364BA3FB02135B094FF4FA7101FB1D
:1020000003F3D31A7B603B1DBB602C4B19682C4B30
:102010001B682C4A126802FB03F07A6913465B00C6
:102020001344C2183B691344274A1268B3FBF2F009
:1020300002FB00F29B1A0B443A69C2F102021146FC
:10204000BA680A4412781A703B6901333B613B69F4
:10205000022BACDD174A7B6952F823301846012168
:10206000FFF7DAFE7B6901337B617A690F4B1B68EE
:102070005B689A428BD3124B1B680133104A136082
:102080000C4B1B6818460021FFF7C6FE074B1B6868
:10209000DB681846FFF742FB044B1B68DB681846F9
:1020A000FFF760FB1C37BD4690BD00BF3400002029
:1020B00000600040D801002000C00040A4020020C1
:1020C0009C020020AC020020B0020020D34D621020
:1020D00080B400AFBD465DF8047B704780B500AFAB
:1020E000FFF7F6FF00F00AF800F066F803461A461C
:1020F000014B1A70FEE700BFA002002080B582B03D
:1021000000AFFFF7A7F9FFF7EBF9FFF7C7FEFFF7FF
:10211000E3FDFFF703FFFFF77FFB224B1B685A68C5
:1021200013465B001A441F4B1B689B6A9B001344B9
:102130001A461D4B1A601B4B1B689B681A4A126893
:1021400002FB03F3194A1360164B1B681A68154B00
:102150001B689B69B2FBF3F35B08013B7B6078680B
:1021600000F084F902460B46104619464FF0000273
:102170000F4B00F0F1F902460B461046194600F0ED
:10218000FDFB03463B60094B1B68184600F050FC02
:102190000246084B1A6078683968FFF7D3F90837A8
:1021A000BD4680BD34000020AC020020B0020020FB
:1021B0000000E03FA402002080B582B000AF002301
:1021C0007B60074B1B681846FFF7A4FD054B0022F8
:1021D0001A70044B1B7818460837BD4680BD00BFF7
:1021E000D8010020A002002081F0004102E000BFE1
:1021F00083F0004330B54FEA41044FEA430594EAC7
:10220000050F08BF90EA020F1FBF54EA000C55EA01
:10221000020C7FEA645C7FEA655C00F0E2804FEAD2
:102220005454D4EB5555B8BF6D420CDD2C4480EAB4
:10223000020281EA030382EA000083EA010180EAE4
:10224000020281EA0303362D88BF30BD11F0004F32
:102250004FEA01314FF4801C4CEA113102D0404268
:1022600061EB410113F0004F4FEA03334CEA1333A3
:1022700002D0524263EB430394EA050F00F0A780BB
:10228000A4F10104D5F1200E0DDB02FA0EFC22FAB6
:1022900005F2801841F1000103FA0EF2801843FAAA
:1022A00005F359410EE0A5F120050EF1200E012A9B
:1022B00003FA0EFC28BF4CF0020C43FA05F3C018D9
:1022C00051EBE37101F0004507D54FF0000EDCF152
:1022D000000C7EEB00006EEB0101B1F5801F1BD3FB
:1022E000B1F5001F0CD349085FEA30004FEA3C0CFF
:1022F00004F101044FEA445212F5800F80F09A80F5
:10230000BCF1004F08BF5FEA500C50F1000041EBF8
:10231000045141EA050130BD5FEA4C0C404141EBFC
:10232000010111F4801FA4F10104E9D191F0000F23
:1023300004BF01460020B1FA81F308BF2033A3F1A6
:102340000B03B3F120020CDA0C3208DD02F1140C9D
:10235000C2F10C0201FA0CF021FA02F10CE002F1D8
:102360001402D8BFC2F1200C01FA02F120FA0CFCD1
:10237000DCBF41EA0C019040E41AA2BF01EB04511A
:10238000294330BD6FEA04041F3C1CDA0C340EDC18
:1023900004F11404C4F1200220FA04F001FA02F35B
:1023A00040EA030021FA04F345EA030130BDC4F119
:1023B0000C04C4F1200220FA02F001FA04F340EA0E
:1023C0000300294630BD21FA04F0294630BD94F0BF
:1023D000000F83F4801306BF81F480110134013DA6
:1023E0004EE77FEA645C18BF7FEA655C29D094EA17
:1023F000050F08BF90EA020F05D054EA000C04BF95
:102400001946104630BD91EA030F1EBF002100207F
:1024100030BD5FEA545C05D14000494128BF41F01E
:10242000004130BD14F580043CBF01F5801130BD82
:1024300001F0004545F0FE4141F470014FF000000D
:1024400030BD7FEA645C1ABF194610467FEA655CBE
:102450001CBF0B46024650EA013406BF52EA033560
:1024600091EA030F41F4002130BD00BF90F0000F4E
:1024700004BF0021704730B54FF4806404F132048A
:102480004FF000054FF0000150E700BF90F0000F43
:1024900004BF0021704730B54FF4806404F132046A
:1024A00010F0004548BF40424FF000013EE700BF3A
:1024B00042004FEAE2014FEA31014FEA02701FBFCA
:1024C00012F07F4393F07F4F81F06051704792F09C
:1024D000000F14BF93F07F4F704730B54FF4607416
:1024E00001F0004521F0004120E700BF50EA010261
:1024F00008BF704730B54FF000050AE050EA01020E
:1025000008BF704730B511F0004502D5404261EB7D
:1025100041014FF4806404F132045FEA915C3FF4BE
:10252000DCAE4FF003025FEADC0C18BF03325FEA57
:10253000DC0C18BF033202EBDC02C2F1200300FA0C
:1025400003FC20FA02F001FA03FE40EA0E0021FA31
:1025500002F11444C1E600BF70B54FF0FF0C4CF41B
:10256000E06C1CEA11541DBF1CEA135594EA0C0FD1
:1025700095EA0C0F00F0DEF82C4481EA030621EA0C
:102580004C5123EA4C5350EA013518BF52EA033547
:1025900041F4801143F4801338D0A0FB02CE4FF0F9
:1025A0000005E1FB02E506F00042E0FB03E54FF029
:1025B0000006E1FB03569CF0000F18BF4EF0010E21
:1025C000A4F1FF04B6F5007F64F5407404D25FEA1D
:1025D0004E0E6D4146EB060642EAC62141EA5551D0
:1025E0004FEAC52040EA5E504FEACE2EB4F1FD0C12
:1025F00088BFBCF5E06F1ED8BEF1004F08BF5FEA90
:10260000500E50F1000041EB045170BD06F0004641
:1026100046EA010140EA020081EA0301B4EB5C04EE
:10262000C2BFD4EB0C0541EA045170BD41F48011E6
:102630004FF0000E013C00F3AB8014F1360FDEBF0B
:10264000002001F0004170BDC4F10004203C35DAE7
:102650000C341BDC04F11404C4F1200500FA05F36A
:1026600020FA04F001FA05F240EA020001F000420B
:1026700021F0004110EBD37021FA04F642EB060181
:102680005EEA430E08BF20EAD37070BDC4F10C04AB
:10269000C4F1200500FA04F320FA05F001FA04F26F
:1026A00040EA020001F0004110EBD37041F100015B
:1026B0005EEA430E08BF20EAD37070BDC4F1200566
:1026C00000FA05F24EEA020E20FA04F301FA05F2CE
:1026D00043EA020321FA04F001F0004121FA04F276
:1026E00020EA020000EBD3705EEA430E08BF20EA46
:1026F000D37070BD94F0000F0FD101F00046400080
:1027000041EB010111F4801F08BF013CF7D041EA01
:10271000060195F0000F18BF704703F00046520005
:1027200043EB030313F4801F08BF013DF7D043EAD6
:102730000603704794EA0C0F0CEA135518BF95EA8C
:102740000C0F0CD050EA410618BF52EA4306D1D113
:1027500081EA030101F000414FF0000070BD50EA32
:10276000410606BF1046194652EA430619D094EABC
:102770000C0F02D150EA013613D195EA0C0F05D1A6
:1027800052EA03361CBF104619460AD181EA0301FA
:1027900001F0004141F0FE4141F470014FF00000B2
:1027A00070BD41F0FE4141F4780170BD70B54FF04D
:1027B000FF0C4CF4E06C1CEA11541DBF1CEA1355CD
:1027C00094EA0C0F95EA0C0F00F0A7F8A4EB0504AF
:1027D00081EA030E52EA03354FEA013100F08880A6
:1027E0004FEA03334FF0805545EA131343EA12636F
:1027F0004FEA022245EA111545EA10654FEA002624
:102800000EF000419D4208BF964244F1FD0404F5DC
:10281000407402D25B084FEA3202B61A65EB030538
:102820005B084FEA32024FF480104FF4002CB6EBF5
:10283000020E75EB030E22BFB61A754640EA0C0075
:102840005B084FEA3202B6EB020E75EB030E22BFB5
:10285000B61A754640EA5C005B084FEA3202B6EBF6
:10286000020E75EB030E22BFB61A754640EA9C00B5
:102870005B084FEA3202B6EB020E75EB030E22BF85
:10288000B61A754640EADC0055EA060E18D04FEA43
:10289000051545EA16754FEA06164FEAC30343EAE3
:1028A00052734FEAC2025FEA1C1CC0D111F4801FB0
:1028B0000BD141EA00014FF000004FF0004CB6E7A9
:1028C00011F4801F04BF01430020B4F1FD0C88BF48
:1028D000BCF5E06F3FF6AFAEB5EB030C04BFB6EB53
:1028E000020C5FEA500C50F1000041EB045170BD46
:1028F0000EF0004E4EEA113114EB5C04C2BFD4EB73
:102900000C0541EA045170BD41F480114FF0000EF6
:10291000013C90E645EA060E8DE60CEA135594EA72
:102920000C0F08BF95EA0C0F3FF43BAF94EA0C0F75
:102930000AD150EA01347FF434AF95EA0C0F7FF4EA
:1029400025AF104619462CE795EA0C0F06D152EA3E
:1029500003353FF4FDAE1046194622E750EA410622
:1029600018BF52EA43067FF4C5AE50EA41047FF433
:102970000DAF52EA43057FF4EBAE12E74A0011D2E5
:1029800012F5001211D20DD56FF47873B3EB6252C9
:102990000ED44FEAC12343F0004343EA505323FAD5
:1029A00002F070474FF00000704750EA013002D14A
:1029B0004FF0FF3070474FF00000704708B5074BED
:1029C000044613B10021AFF30080054B1868836AF9
:1029D00003B19847204600F0AFF800BF00000000A8
:1029E0009C2B000070B50E4B0E4CE41AA410002571
:1029F0001E46A54204D056F8253098470135F8E721
:102A000000F09CF8084C094BE41AA41000251E465F
:102A1000A54204D056F8253098470135F8E770BD37
:102A20005C0200205C020020600200205C020020AA
:102A3000024B0146186800F00BB800BF5802002096
:102A400002440346934202D003F8011BFAE77047A1
:102A500070B5CC1C24F0030408340C2C38BF0C24B3
:102A6000002C064603DA0C233360002070BD8C4234
:102A7000F9D3204A136810461946A1B10A68121BFF
:102A80000ED40B2A03D90A608B188C501FE08B429E
:102A90000DBF5A684A685A60026018BF0B4616E0BC
:102AA0000B464968E9E7144D2B681BB9304600F026
:102AB00025F828603046214600F020F8421C0346E5
:102AC000D1D0C51C25F0030585420AD11C6003F155
:102AD0000B001A1D20F00700821A0AD051429950AB
:102AE00070BD3046E91A00F009F80130BBD02B4622
:102AF000ECE770BD900200208C02002038B5064C37
:102B0000002305460846236000F008F8431C02D164
:102B1000236803B12B6038BDB4020020044A054984
:102B20001368002B08BF0B46184410601846704706
:102B300094020020B8020020FEE700BFF8B500BFF5
:102B4000F8BC08BC9E467047F8B500BFF8BC08BC8E
:102B50009E467047000000000000000000000000DA
:102B600000000200000000004000000000000180A2
:102B70006008000080010600000080000000500096
:102B8000050000000000000040420F0005010000A9
:102B9000000000000000000043000000F8010020D9
:042BA0000000000031
:082BA40098D5FF7F010000003D
:102BAC00002D310100800000002D310108000000D3
:102BBC004001000000020000010000003C00000089
:102BCC00006009001300000040420F0000080700DD
:102BDC00010000000800002054310000000000003B
:102BEC0000000000000000000000020000000000D7
:102BFC004000000000000180600800008001060019
:102C0C000000800000005000000000005432000062
:102C1C0000000000000000000000000000000200A6
:102C2C00000000004000000000000180600800006F
:102C3C00800106000000800000005000020500002A
:102C4C0053310000000000000000000000000000F4
:102C5C0000000200000000004000000000000180A5
:102C6C006008000080010600000080000000500099
:102C7C0002060000533200000000000000000000BB
:102C8C0000000000000002000000000040000000F6
:102C9C000000018060080000800106000000800038
:102CAC00000050000207000043310000000000004B
:102CBC000000000000000000000002000000000006
:102CCC004000000000000180600800008001060048
:102CDC000000800000005000020C00004158000071
:102CEC0000000000000000000000000000000200D6
:102CFC00000000004000000000000180600800009F
:102D0C00800106000000800000005000020E000050
:102D1C00415900000000000000000000000000000D
:102D2C0000000200000000004000000000000180D4
:102D3C0060080000800106000000800000005000C8
:102D4C00020F0000415A00000000000000000000CB
:102D5C000000000000000200000000004000000025
:102D6C000000018060080000800106000000800067
:102D7C000000500000010000380000206C00002012
:102D8C00A0000020D4000020080100203C010020FD
:102D9C0070010020A40100200000000000000000D1
:102DAC000000000000000000000000000000000017
:102DBC000000000000000000982B00000000000044
:102DCC0000000000000000000000000000000000F7
:102DDC0000000000000000000000000000000000E7
:102DEC0000000000000000000000000000000000D7
:102DFC000000000000000000F801002005010000A8
:082E0C00E100000000000000DD
:04000003000001B147
:00000001FF
